{
  "contractName": "AuctionItem",
  "abi": [
    {
      "constant": true,
      "inputs": [],
      "name": "highBidder",
      "outputs": [
        {
          "name": "",
          "type": "address"
        }
      ],
      "payable": false,
      "stateMutability": "view",
      "type": "function"
    },
    {
      "constant": false,
      "inputs": [
        {
          "name": "name",
          "type": "string"
        }
      ],
      "name": "Auction",
      "outputs": [],
      "payable": false,
      "stateMutability": "nonpayable",
      "type": "function"
    },
    {
      "constant": false,
      "inputs": [
        {
          "name": "_squak",
          "type": "string"
        }
      ],
      "name": "bid",
      "outputs": [],
      "payable": true,
      "stateMutability": "payable",
      "type": "function"
    },
    {
      "constant": true,
      "inputs": [],
      "name": "owner",
      "outputs": [
        {
          "name": "",
          "type": "address"
        }
      ],
      "payable": false,
      "stateMutability": "view",
      "type": "function"
    },
    {
      "constant": true,
      "inputs": [],
      "name": "squak",
      "outputs": [
        {
          "name": "",
          "type": "string"
        }
      ],
      "payable": false,
      "stateMutability": "view",
      "type": "function"
    },
    {
      "constant": true,
      "inputs": [],
      "name": "auctionName",
      "outputs": [
        {
          "name": "",
          "type": "string"
        }
      ],
      "payable": false,
      "stateMutability": "view",
      "type": "function"
    },
    {
      "constant": true,
      "inputs": [],
      "name": "currentHighestBid",
      "outputs": [
        {
          "name": "",
          "type": "uint256"
        }
      ],
      "payable": false,
      "stateMutability": "view",
      "type": "function"
    },
    {
      "constant": false,
      "inputs": [],
      "name": "endAuction",
      "outputs": [],
      "payable": false,
      "stateMutability": "nonpayable",
      "type": "function"
    },
    {
      "payable": true,
      "stateMutability": "payable",
      "type": "fallback"
    },
    {
      "anonymous": false,
      "inputs": [
        {
          "indexed": false,
          "name": "newHighBidder",
          "type": "address"
        },
        {
          "indexed": false,
          "name": "newHighBid",
          "type": "uint256"
        },
        {
          "indexed": false,
          "name": "squak",
          "type": "string"
        }
      ],
      "name": "NewHighestBid",
      "type": "event"
    }
  ],
  "bytecode": "0x60606040526000600160146101000a81548160ff0219169083151502179055506000600255341561002f57600080fd5b6109c18061003e6000396000f30060606040526004361061008e576000357c0100000000000000000000000000000000000000000000000000000000900463ffffffff1680633ce123dc146101ed57806367800864146102425780637aef951c1461029f5780638da5cb5b146102f1578063a461869114610346578063c63d99db146103d4578063cc7d1a0f14610462578063fe67a54b1461048b575b6002543411151561009e57600080fd5b60001515600160149054906101000a900460ff1615151415156100c057600080fd5b600360009054906101000a900473ffffffffffffffffffffffffffffffffffffffff1673ffffffffffffffffffffffffffffffffffffffff166108fc6002549081150290604051600060405180830381858888f19350505050151561012457600080fd5b3460028190555033600360006101000a81548173ffffffffffffffffffffffffffffffffffffffff021916908373ffffffffffffffffffffffffffffffffffffffff1602179055507fbc7b3f86f921a96bb13c42d443209ee51a5bfafcc825a1f90a00ec5cb99a9e753334604051808373ffffffffffffffffffffffffffffffffffffffff1673ffffffffffffffffffffffffffffffffffffffff16815260200182815260200180602001828103825260008152602001602001935050505060405180910390a1005b34156101f857600080fd5b6102006104a0565b604051808273ffffffffffffffffffffffffffffffffffffffff1673ffffffffffffffffffffffffffffffffffffffff16815260200191505060405180910390f35b341561024d57600080fd5b61029d600480803590602001908201803590602001908080601f016020809104026020016040519081016040528093929190818152602001838380828437820191505050505050919050506104c6565b005b6102ef600480803590602001908201803590602001908080601f01602080910402602001604051908101604052809392919081815260200183838082843782019150505050505091905050610521565b005b34156102fc57600080fd5b6103046106f1565b604051808273ffffffffffffffffffffffffffffffffffffffff1673ffffffffffffffffffffffffffffffffffffffff16815260200191505060405180910390f35b341561035157600080fd5b610359610717565b6040518080602001828103825283818151815260200191508051906020019080838360005b8381101561039957808201518184015260208101905061037e565b50505050905090810190601f1680156103c65780820380516001836020036101000a031916815260200191505b509250505060405180910390f35b34156103df57600080fd5b6103e76107b5565b6040518080602001828103825283818151815260200191508051906020019080838360005b8381101561042757808201518184015260208101905061040c565b50505050905090810190601f1680156104545780820380516001836020036101000a031916815260200191505b509250505060405180910390f35b341561046d57600080fd5b610475610853565b6040518082815260200191505060405180910390f35b341561049657600080fd5b61049e610859565b005b600360009054906101000a900473ffffffffffffffffffffffffffffffffffffffff1681565b80600090805190602001906104dc9291906108f0565b5033600160006101000a81548173ffffffffffffffffffffffffffffffffffffffff021916908373ffffffffffffffffffffffffffffffffffffffff16021790555050565b6002543411151561053157600080fd5b60001515600160149054906101000a900460ff16151514151561055357600080fd5b600360009054906101000a900473ffffffffffffffffffffffffffffffffffffffff1673ffffffffffffffffffffffffffffffffffffffff166108fc6002549081150290604051600060405180830381858888f1935050505015156105b757600080fd5b3460028190555033600360006101000a81548173ffffffffffffffffffffffffffffffffffffffff021916908373ffffffffffffffffffffffffffffffffffffffff16021790555080600490805190602001906106159291906108f0565b507fbc7b3f86f921a96bb13c42d443209ee51a5bfafcc825a1f90a00ec5cb99a9e75333483604051808473ffffffffffffffffffffffffffffffffffffffff1673ffffffffffffffffffffffffffffffffffffffff16815260200183815260200180602001828103825283818151815260200191508051906020019080838360005b838110156106b2578082015181840152602081019050610697565b50505050905090810190601f1680156106df5780820380516001836020036101000a031916815260200191505b5094505050505060405180910390a150565b600160009054906101000a900473ffffffffffffffffffffffffffffffffffffffff1681565b60048054600181600116156101000203166002900480601f0160208091040260200160405190810160405280929190818152602001828054600181600116156101000203166002900480156107ad5780601f10610782576101008083540402835291602001916107ad565b820191906000526020600020905b81548152906001019060200180831161079057829003601f168201915b505050505081565b60008054600181600116156101000203166002900480601f01602080910402602001604051908101604052809291908181526020018280546001816001161561010002031660029004801561084b5780601f106108205761010080835404028352916020019161084b565b820191906000526020600020905b81548152906001019060200180831161082e57829003601f168201915b505050505081565b60025481565b600160009054906101000a900473ffffffffffffffffffffffffffffffffffffffff1673ffffffffffffffffffffffffffffffffffffffff163373ffffffffffffffffffffffffffffffffffffffff161415156108b557600080fd5b600160009054906101000a900473ffffffffffffffffffffffffffffffffffffffff1673ffffffffffffffffffffffffffffffffffffffff16ff5b828054600181600116156101000203166002900490600052602060002090601f016020900481019282601f1061093157805160ff191683800117855561095f565b8280016001018555821561095f579182015b8281111561095e578251825591602001919060010190610943565b5b50905061096c9190610970565b5090565b61099291905b8082111561098e576000816000905550600101610976565b5090565b905600a165627a7a723058208c84b0a3ffec037fc9cce0e89ef0a5b3d87aa5fd5a903f04ba5137c7519bae060029",
  "source": "pragma solidity ^0.4.11;\n\ncontract AuctionItem {\n    \n    string public auctionName;\n    address public owner; \n    bool auctionEnded = false;\n    \n    event NewHighestBid(\n        address newHighBidder,\n        uint newHighBid,\n        string squak\n    );\n    \n    uint public currentHighestBid = 0;\n    address public highBidder; \n    string public squak;\n\n    modifier onlyOwner {\n        require(msg.sender == owner);\n        _;\n    }\n    modifier higherBid {\n        require(msg.value > currentHighestBid);\n        _;\n    }\n    \n    modifier auctionNotOver {\n        require(auctionEnded == false);\n        _;\n    }\n    \n    function Auction(string name){\n        auctionName = name; \n        owner = msg.sender;\n    }\n    \n    //allow people using MetaMask/Cipher et. al. to specifically set a taunting message ;)\n    function bid(string _squak) payable higherBid auctionNotOver {\n        highBidder.transfer(currentHighestBid);\n        currentHighestBid = msg.value;\n        highBidder = msg.sender;\n        squak = _squak;\n        NewHighestBid(msg.sender, msg.value, _squak);\n\n        }\n    //allow people with basic wallets to send a bid (QR scan etc.), but no squaking for them \n    function() payable higherBid auctionNotOver{\n        highBidder.transfer(currentHighestBid);\n        currentHighestBid = msg.value;\n        highBidder = msg.sender;\n        NewHighestBid(msg.sender, msg.value, '');\n        \n    }\n    //The owner should be able to end the auction\n    function endAuction() onlyOwner{\n        selfdestruct(owner);\n        auctionEnded = true;\n    }\n\n    \n}",
  "sourcePath": "/home/m/Desktop/ETHDenver_Auction/contracts/AuctionItem.sol",
  "compiler": {
    "name": "solc",
    "version": "0.4.18+commit.9cf6e910.Emscripten.clang"
  },
  "schemaVersion": "1.0.1",
  "updatedAt": "2018-02-15T21:28:53.291Z"
}